{
  "contractName": "NaiveSubscriptionFactory",
  "abi": [
    {
      "constant": true,
      "inputs": [
        {
          "name": "",
          "type": "uint256"
        }
      ],
      "name": "subscriptionContracts",
      "outputs": [
        {
          "name": "",
          "type": "address"
        }
      ],
      "payable": false,
      "stateMutability": "view",
      "type": "function"
    },
    {
      "anonymous": false,
      "inputs": [
        {
          "indexed": false,
          "name": "contractAddress",
          "type": "address"
        }
      ],
      "name": "DeployedSubscription",
      "type": "event"
    },
    {
      "constant": false,
      "inputs": [],
      "name": "newSubscription",
      "outputs": [
        {
          "name": "newContract",
          "type": "address"
        }
      ],
      "payable": false,
      "stateMutability": "nonpayable",
      "type": "function"
    },
    {
      "constant": true,
      "inputs": [],
      "name": "getSubscriptionContractsCount",
      "outputs": [
        {
          "name": "count",
          "type": "uint256"
        }
      ],
      "payable": false,
      "stateMutability": "view",
      "type": "function"
    }
  ],
  "bytecode": "0x608060405234801561001057600080fd5b506108b8806100206000396000f300608060405260043610610057576000357c0100000000000000000000000000000000000000000000000000000000900463ffffffff1680636c9fd0841461005c578063718846dc14610087578063fcecbf59146100f4575b600080fd5b34801561006857600080fd5b5061007161014b565b6040518082815260200191505060405180910390f35b34801561009357600080fd5b506100b260048036038101908080359060200190929190505050610157565b604051808273ffffffffffffffffffffffffffffffffffffffff1673ffffffffffffffffffffffffffffffffffffffff16815260200191505060405180910390f35b34801561010057600080fd5b50610109610195565b604051808273ffffffffffffffffffffffffffffffffffffffff1673ffffffffffffffffffffffffffffffffffffffff16815260200191505060405180910390f35b60008080549050905090565b60008181548110151561016657fe5b906000526020600020016000915054906101000a900473ffffffffffffffffffffffffffffffffffffffff1681565b6000806101a061028f565b604051809103906000f0801580156101bc573d6000803e3d6000fd5b50905060008190806001815401808255809150509060018203906000526020600020016000909192909190916101000a81548173ffffffffffffffffffffffffffffffffffffffff021916908373ffffffffffffffffffffffffffffffffffffffff160217905550507f961ccd013b11cb542f1f5bd57d26dd390131257a56fd86f02a264a0bc25fdb6d81604051808273ffffffffffffffffffffffffffffffffffffffff1673ffffffffffffffffffffffffffffffffffffffff16815260200191505060405180910390a18091505090565b6040516105ed806102a0833901905600608060405234801561001057600080fd5b506105cd806100206000396000f300608060405260043610610078576000357c0100000000000000000000000000000000000000000000000000000000900463ffffffff1680638da5cb5b1461007d5780639657d80e1461010d578063968ed6001461019d5780639e2ce9d2146101c8578063b29f0835146101f3578063f9fbdb9e1461020a575b600080fd5b34801561008957600080fd5b50610092610273565b6040518080602001828103825283818151815260200191508051906020019080838360005b838110156100d25780820151818401526020810190506100b7565b50505050905090810190601f1680156100ff5780820380516001836020036101000a031916815260200191505b509250505060405180910390f35b34801561011957600080fd5b50610122610311565b6040518080602001828103825283818151815260200191508051906020019080838360005b83811015610162578082015181840152602081019050610147565b50505050905090810190601f16801561018f5780820380516001836020036101000a031916815260200191505b509250505060405180910390f35b3480156101a957600080fd5b506101b26103d6565b6040518082815260200191505060405180910390f35b3480156101d457600080fd5b506101dd6103dc565b6040518082815260200191505060405180910390f35b3480156101ff57600080fd5b506102086103e2565b005b34801561021657600080fd5b50610271600480360381019080803590602001908201803590602001908080601f01602080910402602001604051908101604052809392919081815260200183838082843782019150505050505091929192905050506104d2565b005b60008054600181600116156101000203166002900480601f0160208091040260200160405190810160405280929190818152602001828054600181600116156101000203166002900480156103095780601f106102de57610100808354040283529160200191610309565b820191906000526020600020905b8154815290600101906020018083116102ec57829003601f168201915b505050505081565b60606001600081548092919060010191905055506000151561039b576040517f08c379a000000000000000000000000000000000000000000000000000000000815260040180806020018281038252600b8152602001807f48656c6c6f20776f726c6400000000000000000000000000000000000000000081525060200191505060405180910390fd5b6040805190810160405280601481526020017f476f6f6462796520737765657420776f726c6421000000000000000000000000815250905090565b60025481565b60015481565b7f69579b52f99fb899da5798a9bd272f083d9fa4b8c7710dc96edc655335fa3049306000604051808373ffffffffffffffffffffffffffffffffffffffff1673ffffffffffffffffffffffffffffffffffffffff168152602001806020018281038252838181546001816001161561010002031660029004815260200191508054600181600116156101000203166002900480156104c15780601f10610496576101008083540402835291602001916104c1565b820191906000526020600020905b8154815290600101906020018083116104a457829003601f168201915b5050935050505060405180910390a1565b600081511415156104e257600080fd5b80600090805190602001906104f89291906104fc565b5050565b828054600181600116156101000203166002900490600052602060002090601f016020900481019282601f1061053d57805160ff191683800117855561056b565b8280016001018555821561056b579182015b8281111561056a57825182559160200191906001019061054f565b5b509050610578919061057c565b5090565b61059e91905b8082111561059a576000816000905550600101610582565b5090565b905600a165627a7a723058208f37d9cb4d34868c61fe5872f18f58ff38668e27abfe3bf99f70f0aa84329b5b0029a165627a7a723058201732a337bbc99f7d60a8347c0490b921eb857fed8a1bf82990806c808d3b6f120029",
  "source": "pragma solidity ^0.4.23;\r\n\r\nimport \"../Subscription.sol\";\r\n\r\ncontract NaiveSubscriptionFactory {\r\n    \r\n    address[] public subscriptionContracts;\r\n    event DeployedSubscription(address contractAddress);\r\n    \r\n    function newSubscription() public returns(address newContract) {\r\n        Subscription sub = new Subscription();\r\n        subscriptionContracts.push(sub);\r\n        emit DeployedSubscription(sub);\r\n        return sub;\r\n    }\r\n    \r\n    function getSubscriptionContractsCount() public constant returns (uint count) {\r\n        return subscriptionContracts.length;\r\n    }\r\n  \r\n}",
  "sourcePath": "C:\\Users\\Philz zee Kill\\desktop\\webprojects\\thesis\\contracts\\NaiveContracts\\NaiveSubscriptionFactory.sol",
  "compiler": {
    "name": "solc",
    "version": "0.4.23+commit.124ca40d.Emscripten.clang"
  },
  "schemaVersion": "2.0.0",
  "updatedAt": "2018-05-28T06:01:07.337Z"
}