{
  "contractName": "NaiveSubscriptionFactory",
  "abi": [
    {
      "constant": true,
      "inputs": [
        {
          "name": "",
          "type": "uint256"
        }
      ],
      "name": "subscriptionContracts",
      "outputs": [
        {
          "name": "",
          "type": "address"
        }
      ],
      "payable": false,
      "stateMutability": "view",
      "type": "function"
    },
    {
      "anonymous": false,
      "inputs": [
        {
          "indexed": false,
          "name": "contractAddress",
          "type": "address"
        }
      ],
      "name": "DeployedSubscription",
      "type": "event"
    },
    {
      "constant": false,
      "inputs": [],
      "name": "newSubscription",
      "outputs": [
        {
          "name": "newContract",
          "type": "address"
        }
      ],
      "payable": false,
      "stateMutability": "nonpayable",
      "type": "function"
    },
    {
      "constant": true,
      "inputs": [],
      "name": "getSubscriptionContractsCount",
      "outputs": [
        {
          "name": "count",
          "type": "uint256"
        }
      ],
      "payable": false,
      "stateMutability": "view",
      "type": "function"
    }
  ],
  "bytecode": "0x608060405234801561001057600080fd5b506109b1806100206000396000f300608060405260043610610057576000357c0100000000000000000000000000000000000000000000000000000000900463ffffffff1680636c9fd0841461005c578063718846dc14610087578063fcecbf59146100f4575b600080fd5b34801561006857600080fd5b5061007161014b565b6040518082815260200191505060405180910390f35b34801561009357600080fd5b506100b260048036038101908080359060200190929190505050610157565b604051808273ffffffffffffffffffffffffffffffffffffffff1673ffffffffffffffffffffffffffffffffffffffff16815260200191505060405180910390f35b34801561010057600080fd5b50610109610195565b604051808273ffffffffffffffffffffffffffffffffffffffff1673ffffffffffffffffffffffffffffffffffffffff16815260200191505060405180910390f35b60008080549050905090565b60008181548110151561016657fe5b906000526020600020016000915054906101000a900473ffffffffffffffffffffffffffffffffffffffff1681565b6000806101a061028f565b604051809103906000f0801580156101bc573d6000803e3d6000fd5b50905060008190806001815401808255809150509060018203906000526020600020016000909192909190916101000a81548173ffffffffffffffffffffffffffffffffffffffff021916908373ffffffffffffffffffffffffffffffffffffffff160217905550507f961ccd013b11cb542f1f5bd57d26dd390131257a56fd86f02a264a0bc25fdb6d81604051808273ffffffffffffffffffffffffffffffffffffffff1673ffffffffffffffffffffffffffffffffffffffff16815260200191505060405180910390a18091505090565b6040516106e6806102a0833901905600608060405234801561001057600080fd5b506040805190810160405280600681526020017f6d617374657200000000000000000000000000000000000000000000000000008152506000908051906020019061005c929190610062565b50610107565b828054600181600116156101000203166002900490600052602060002090601f016020900481019282601f106100a357805160ff19168380011785556100d1565b828001600101855582156100d1579182015b828111156100d05782518255916020019190600101906100b5565b5b5090506100de91906100e2565b5090565b61010491905b808211156101005760008160009055506001016100e8565b5090565b90565b6105d0806101166000396000f30060806040526004361061006c576000357c0100000000000000000000000000000000000000000000000000000000900463ffffffff16806238a5b51461007157806306fdde03146100e45780634d536fe314610174578063bd0d90aa1461018b578063c89f2ce41461021b575b600080fd5b34801561007d57600080fd5b506100e2600480360381019080803590602001908201803590602001908080601f016020809104026020016040519081016040528093929190818152602001838380828437820191505050505050919291929080359060200190929190505050610246565b005b3480156100f057600080fd5b506100f961029c565b6040518080602001828103825283818151815260200191508051906020019080838360005b8381101561013957808201518184015260208101905061011e565b50505050905090810190601f1680156101665780820380516001836020036101000a031916815260200191505b509250505060405180910390f35b34801561018057600080fd5b5061018961033a565b005b34801561019757600080fd5b506101a0610434565b6040518080602001828103825283818151815260200191508051906020019080838360005b838110156101e05780820151818401526020810190506101c5565b50505050905090810190601f16801561020d5780820380516001836020036101000a031916815260200191505b509250505060405180910390f35b34801561022757600080fd5b506102306104f9565b6040518082815260200191505060405180910390f35b60008080546001816001161561010002031660029004905014151561026a57600080fd5b6000825111151561027a57600080fd5b81600090805190602001906102909291906104ff565b50806001819055505050565b60008054600181600116156101000203166002900480601f0160208091040260200160405190810160405280929190818152602001828054600181600116156101000203166002900480156103325780601f1061030757610100808354040283529160200191610332565b820191906000526020600020905b81548152906001019060200180831161031557829003601f168201915b505050505081565b7f65c2f1b44bc4496cfa33164bccaba76da9369e95c2870f60662661a1039504e2306000600154604051808473ffffffffffffffffffffffffffffffffffffffff1673ffffffffffffffffffffffffffffffffffffffff168152602001806020018381526020018281038252848181546001816001161561010002031660029004815260200191508054600181600116156101000203166002900480156104225780601f106103f757610100808354040283529160200191610422565b820191906000526020600020905b81548152906001019060200180831161040557829003601f168201915b505094505050505060405180910390a1565b6060600160008154809291906001019190505550600015156104be576040517f08c379a000000000000000000000000000000000000000000000000000000000815260040180806020018281038252600c8152602001807f48656c6c6f20776f726c6421000000000000000000000000000000000000000081525060200191505060405180910390fd5b6040805190810160405280601481526020017f476f6f6462796520737765657420776f726c6421000000000000000000000000815250905090565b60015481565b828054600181600116156101000203166002900490600052602060002090601f016020900481019282601f1061054057805160ff191683800117855561056e565b8280016001018555821561056e579182015b8281111561056d578251825591602001919060010190610552565b5b50905061057b919061057f565b5090565b6105a191905b8082111561059d576000816000905550600101610585565b5090565b905600a165627a7a72305820ccb6c1e2a65b488d85d61503159ccd6b6b328fe47f9703e98e4c888b93c616570029a165627a7a72305820c7f8433cc37b7cd8756ada558fd0877f0bb0a9ec7481066bdd27370b8b331cf70029",
  "source": "pragma solidity ^0.4.23;\r\n\r\nimport \"../Subscription.sol\";\r\n\r\ncontract NaiveSubscriptionFactory {\r\n    \r\n    address[] public subscriptionContracts;\r\n    event DeployedSubscription(address contractAddress);\r\n    \r\n    function newSubscription() public returns(address newContract) {\r\n        Subscription sub = new Subscription();\r\n        subscriptionContracts.push(sub);\r\n        emit DeployedSubscription(sub);\r\n        return sub;\r\n    }\r\n    \r\n    function getSubscriptionContractsCount() public constant returns (uint count) {\r\n        return subscriptionContracts.length;\r\n    }\r\n  \r\n}",
  "sourcePath": "C:\\Users\\Philz zee Kill\\Desktop\\WebProjects\\thesis\\contracts\\NaiveContracts\\NaiveSubscriptionFactory.sol",
  "compiler": {
    "name": "solc",
    "version": "0.4.23+commit.124ca40d.Emscripten.clang"
  },
  "schemaVersion": "2.0.0",
  "updatedAt": "2018-05-29T07:58:15.772Z"
}