{
  "contractName": "SubscriptionFactory",
  "abi": [
    {
      "constant": true,
      "inputs": [],
      "name": "libraryAddress",
      "outputs": [
        {
          "name": "",
          "type": "address"
        }
      ],
      "payable": false,
      "stateMutability": "view",
      "type": "function"
    },
    {
      "inputs": [
        {
          "name": "_libraryAddress",
          "type": "address"
        }
      ],
      "payable": false,
      "stateMutability": "nonpayable",
      "type": "constructor"
    },
    {
      "anonymous": false,
      "inputs": [
        {
          "indexed": false,
          "name": "newThingAddress",
          "type": "address"
        },
        {
          "indexed": false,
          "name": "libraryAddress",
          "type": "address"
        }
      ],
      "name": "SubscriptionCreated",
      "type": "event"
    },
    {
      "anonymous": false,
      "inputs": [
        {
          "indexed": true,
          "name": "target",
          "type": "address"
        },
        {
          "indexed": false,
          "name": "clone",
          "type": "address"
        }
      ],
      "name": "CloneCreated",
      "type": "event"
    },
    {
      "constant": false,
      "inputs": [],
      "name": "onlyCreate",
      "outputs": [],
      "payable": false,
      "stateMutability": "nonpayable",
      "type": "function"
    },
    {
      "constant": false,
      "inputs": [
        {
          "name": "_name",
          "type": "string"
        }
      ],
      "name": "createSubscription",
      "outputs": [],
      "payable": false,
      "stateMutability": "nonpayable",
      "type": "function"
    }
  ],
  "bytecode": "0x608060405234801561001057600080fd5b5060405160208061052983398101806040528101908080519060200190929190505050806000806101000a81548173ffffffffffffffffffffffffffffffffffffffff021916908373ffffffffffffffffffffffffffffffffffffffff160217905550506104a6806100836000396000f300608060405260043610610057576000357c0100000000000000000000000000000000000000000000000000000000900463ffffffff168063918a8ebc1461005c578063b816f51314610073578063e001677c146100ca575b600080fd5b34801561006857600080fd5b50610071610133565b005b34801561007f57600080fd5b50610088610160565b604051808273ffffffffffffffffffffffffffffffffffffffff1673ffffffffffffffffffffffffffffffffffffffff16815260200191505060405180910390f35b3480156100d657600080fd5b50610131600480360381019080803590602001908201803590602001908080601f0160208091040260200160405190810160405280939291908181526020018383808284378201915050505050509192919290505050610185565b005b61015d6000809054906101000a900473ffffffffffffffffffffffffffffffffffffffff1661035b565b50565b6000809054906101000a900473ffffffffffffffffffffffffffffffffffffffff1681565b60006101b16000809054906101000a900473ffffffffffffffffffffffffffffffffffffffff1661035b565b90508073ffffffffffffffffffffffffffffffffffffffff1663f9fbdb9e836040518263ffffffff167c01000000000000000000000000000000000000000000000000000000000281526004018080602001828103825283818151815260200191508051906020019080838360005b8381101561023b578082015181840152602081019050610220565b50505050905090810190601f1680156102685780820380516001836020036101000a031916815260200191505b5092505050600060405180830381600087803b15801561028757600080fd5b505af115801561029b573d6000803e3d6000fd5b505050507f72a065a849998b02cabacd96c5c2fa26daa682a707d454005367f445b4658893816000809054906101000a900473ffffffffffffffffffffffffffffffffffffffff16604051808373ffffffffffffffffffffffffffffffffffffffff1673ffffffffffffffffffffffffffffffffffffffff1681526020018273ffffffffffffffffffffffffffffffffffffffff1673ffffffffffffffffffffffffffffffffffffffff1681526020019250505060405180910390a15050565b60006060600080606060405190810160405280603f81526020017f600034603b57603080600f833981f36000368180378080368173bebebebebebe81526020017fbebebebebebebebebebebebebebe5af43d82803e15602c573d90f35b3d90fd008152509250846c01000000000000000000000000029150600090505b60148110156104605781816014811015156103ef57fe5b1a7f0100000000000000000000000000000000000000000000000000000000000000028382601a0181518110151561042357fe5b9060200101907effffffffffffffffffffffffffffffffffffffffffffffffffffffffffffff1916908160001a90535080806001019150506103d8565b82516020840181816000f0955050508393505050509190505600a165627a7a72305820905ee45f4a9e291aff29768006e28171fccab9d32e79970ac67f7a26a29d63a70029",
  "source": "/* This implements clone factory \r\nhttps://github.com/optionality/clone-factory\r\n*/\r\n\r\npragma solidity 0.4.23;\r\n\r\nimport \"./Subscription.sol\";\r\nimport \"./Ownable.sol\";\r\nimport \"./CloneFactory.sol\";\r\n\r\ncontract SubscriptionFactory is CloneFactory {\r\n    address public libraryAddress;\r\n\r\n    event SubscriptionCreated(address newThingAddress, address libraryAddress);\r\n\r\n    constructor(address _libraryAddress) public {\r\n        libraryAddress = _libraryAddress;\r\n    }\r\n\r\n    function onlyCreate() public {\r\n        createClone(libraryAddress);\r\n    }\r\n\r\n    function createSubscription(string _name) public {\r\n        address clone = createClone(libraryAddress);\r\n        Subscription(clone).init(_name);\r\n        emit SubscriptionCreated(clone, libraryAddress);\r\n    }\r\n}",
  "sourcePath": "C:\\Users\\Philz zee Kill\\desktop\\webprojects\\thesis\\contracts\\SubscriptionFactory.sol",
  "compiler": {
    "name": "solc",
    "version": "0.4.23+commit.124ca40d.Emscripten.clang"
  },
  "schemaVersion": "2.0.0",
  "updatedAt": "2018-05-28T07:51:34.532Z"
}