{
  "contractName": "SubscriptionFactory",
  "abi": [
    {
      "constant": true,
      "inputs": [],
      "name": "libraryAddress",
      "outputs": [
        {
          "name": "",
          "type": "address"
        }
      ],
      "payable": false,
      "stateMutability": "view",
      "type": "function"
    },
    {
      "inputs": [
        {
          "name": "_libraryAddress",
          "type": "address"
        }
      ],
      "payable": false,
      "stateMutability": "nonpayable",
      "type": "constructor"
    },
    {
      "anonymous": false,
      "inputs": [
        {
          "indexed": false,
          "name": "newSubAddress",
          "type": "address"
        },
        {
          "indexed": false,
          "name": "libraryAddress",
          "type": "address"
        }
      ],
      "name": "SubscriptionCreated",
      "type": "event"
    },
    {
      "anonymous": false,
      "inputs": [
        {
          "indexed": true,
          "name": "target",
          "type": "address"
        },
        {
          "indexed": false,
          "name": "clone",
          "type": "address"
        }
      ],
      "name": "CloneCreated",
      "type": "event"
    },
    {
      "constant": false,
      "inputs": [],
      "name": "onlyCreate",
      "outputs": [],
      "payable": false,
      "stateMutability": "nonpayable",
      "type": "function"
    },
    {
      "constant": false,
      "inputs": [
        {
          "name": "_name",
          "type": "string"
        },
        {
          "name": "_value",
          "type": "uint256"
        }
      ],
      "name": "createThing",
      "outputs": [],
      "payable": false,
      "stateMutability": "nonpayable",
      "type": "function"
    }
  ],
  "bytecode": "0x608060405234801561001057600080fd5b5060405160208061053883398101806040528101908080519060200190929190505050806000806101000a81548173ffffffffffffffffffffffffffffffffffffffff021916908373ffffffffffffffffffffffffffffffffffffffff160217905550506104b5806100836000396000f300608060405260043610610057576000357c0100000000000000000000000000000000000000000000000000000000900463ffffffff168063918a8ebc1461005c578063b816f51314610073578063deec6402146100ca575b600080fd5b34801561006857600080fd5b5061007161013d565b005b34801561007f57600080fd5b5061008861016a565b604051808273ffffffffffffffffffffffffffffffffffffffff1673ffffffffffffffffffffffffffffffffffffffff16815260200191505060405180910390f35b3480156100d657600080fd5b5061013b600480360381019080803590602001908201803590602001908080601f01602080910402602001604051908101604052809392919081815260200183838082843782019150505050505091929192908035906020019092919050505061018f565b005b6101676000809054906101000a900473ffffffffffffffffffffffffffffffffffffffff1661036d565b50565b6000809054906101000a900473ffffffffffffffffffffffffffffffffffffffff1681565b60006101bb6000809054906101000a900473ffffffffffffffffffffffffffffffffffffffff1661036d565b90508073ffffffffffffffffffffffffffffffffffffffff166238a5b584846040518363ffffffff167c01000000000000000000000000000000000000000000000000000000000281526004018080602001838152602001828103825284818151815260200191508051906020019080838360005b8381101561024b578082015181840152602081019050610230565b50505050905090810190601f1680156102785780820380516001836020036101000a031916815260200191505b509350505050600060405180830381600087803b15801561029857600080fd5b505af11580156102ac573d6000803e3d6000fd5b505050507f72a065a849998b02cabacd96c5c2fa26daa682a707d454005367f445b4658893816000809054906101000a900473ffffffffffffffffffffffffffffffffffffffff16604051808373ffffffffffffffffffffffffffffffffffffffff1673ffffffffffffffffffffffffffffffffffffffff1681526020018273ffffffffffffffffffffffffffffffffffffffff1673ffffffffffffffffffffffffffffffffffffffff1681526020019250505060405180910390a1505050565b60006060600080606060405190810160405280603f81526020017f600034603b57603080600f833981f36000368180378080368173bebebebebebe81526020017fbebebebebebebebebebebebebebe5af43d82803e15602c573d90f35b3d90fd008152509250846c01000000000000000000000000029150600090505b601481101561047257818160148110151561040157fe5b1a7f0100000000000000000000000000000000000000000000000000000000000000028382601a0181518110151561043557fe5b9060200101907effffffffffffffffffffffffffffffffffffffffffffffffffffffffffffff1916908160001a90535080806001019150506103ea565b82516020840181816000f0955050505050509190505600a165627a7a72305820ed499ecacca9b8322641d578543ff44452fa2902b65163e36fbf88ac26764cf80029",
  "source": "pragma solidity 0.4.23;\r\n\r\nimport \"./Subscription.sol\";\r\nimport \"./CloneFactory.sol\";\r\n\r\n\r\ncontract SubscriptionFactory is CloneFactory {\r\n\r\n  address public libraryAddress;\r\n\r\n  event SubscriptionCreated(address newSubAddress, address libraryAddress);\r\n\r\n  constructor (address _libraryAddress) public {\r\n    libraryAddress = _libraryAddress;\r\n  }\r\n\r\n  function onlyCreate() public {\r\n    createClone(libraryAddress);\r\n  }\r\n\r\n  function createThing(string _name, uint _value) public {\r\n    address clone = createClone(libraryAddress);\r\n    Subscription(clone).init(_name, _value);\r\n    emit SubscriptionCreated(clone, libraryAddress);\r\n  }\r\n}\r\n",
  "sourcePath": "C:\\Users\\Philz zee Kill\\Desktop\\WebProjects\\thesis\\contracts\\SubscriptionFactory.sol",
  "compiler": {
    "name": "solc",
    "version": "0.4.23+commit.124ca40d.Emscripten.clang"
  },
  "schemaVersion": "2.0.0",
  "updatedAt": "2018-05-29T07:58:15.772Z"
}