{
  "contractName": "Subscription",
  "abi": [
    {
      "constant": true,
      "inputs": [],
      "name": "owner",
      "outputs": [
        {
          "name": "",
          "type": "string"
        }
      ],
      "payable": false,
      "stateMutability": "view",
      "type": "function"
    },
    {
      "constant": true,
      "inputs": [],
      "name": "totalFunds",
      "outputs": [
        {
          "name": "",
          "type": "uint256"
        }
      ],
      "payable": false,
      "stateMutability": "view",
      "type": "function"
    },
    {
      "constant": true,
      "inputs": [],
      "name": "subscribers",
      "outputs": [
        {
          "name": "",
          "type": "uint256"
        }
      ],
      "payable": false,
      "stateMutability": "view",
      "type": "function"
    },
    {
      "inputs": [],
      "payable": false,
      "stateMutability": "nonpayable",
      "type": "constructor"
    },
    {
      "anonymous": false,
      "inputs": [
        {
          "indexed": false,
          "name": "sender",
          "type": "address"
        },
        {
          "indexed": false,
          "name": "name",
          "type": "string"
        },
        {
          "indexed": false,
          "name": "numSubs",
          "type": "uint256"
        },
        {
          "indexed": false,
          "name": "funds",
          "type": "uint256"
        }
      ],
      "name": "confirmedCreation",
      "type": "event"
    },
    {
      "anonymous": false,
      "inputs": [
        {
          "indexed": false,
          "name": "sender",
          "type": "address"
        },
        {
          "indexed": false,
          "name": "someWords",
          "type": "string"
        }
      ],
      "name": "someEvent",
      "type": "event"
    },
    {
      "constant": false,
      "inputs": [
        {
          "name": "_name",
          "type": "string"
        }
      ],
      "name": "init",
      "outputs": [],
      "payable": false,
      "stateMutability": "nonpayable",
      "type": "function"
    },
    {
      "constant": false,
      "inputs": [],
      "name": "doIt",
      "outputs": [],
      "payable": false,
      "stateMutability": "nonpayable",
      "type": "function"
    },
    {
      "constant": false,
      "inputs": [],
      "name": "subbed",
      "outputs": [
        {
          "name": "",
          "type": "string"
        }
      ],
      "payable": false,
      "stateMutability": "nonpayable",
      "type": "function"
    }
  ],
  "bytecode": "0x608060405234801561001057600080fd5b506105cd806100206000396000f300608060405260043610610078576000357c0100000000000000000000000000000000000000000000000000000000900463ffffffff1680638da5cb5b1461007d5780639657d80e1461010d578063968ed6001461019d5780639e2ce9d2146101c8578063b29f0835146101f3578063f9fbdb9e1461020a575b600080fd5b34801561008957600080fd5b50610092610273565b6040518080602001828103825283818151815260200191508051906020019080838360005b838110156100d25780820151818401526020810190506100b7565b50505050905090810190601f1680156100ff5780820380516001836020036101000a031916815260200191505b509250505060405180910390f35b34801561011957600080fd5b50610122610311565b6040518080602001828103825283818151815260200191508051906020019080838360005b83811015610162578082015181840152602081019050610147565b50505050905090810190601f16801561018f5780820380516001836020036101000a031916815260200191505b509250505060405180910390f35b3480156101a957600080fd5b506101b26103d6565b6040518082815260200191505060405180910390f35b3480156101d457600080fd5b506101dd6103dc565b6040518082815260200191505060405180910390f35b3480156101ff57600080fd5b506102086103e2565b005b34801561021657600080fd5b50610271600480360381019080803590602001908201803590602001908080601f01602080910402602001604051908101604052809392919081815260200183838082843782019150505050505091929192905050506104d2565b005b60008054600181600116156101000203166002900480601f0160208091040260200160405190810160405280929190818152602001828054600181600116156101000203166002900480156103095780601f106102de57610100808354040283529160200191610309565b820191906000526020600020905b8154815290600101906020018083116102ec57829003601f168201915b505050505081565b60606001600081548092919060010191905055506000151561039b576040517f08c379a000000000000000000000000000000000000000000000000000000000815260040180806020018281038252600b8152602001807f48656c6c6f20776f726c6400000000000000000000000000000000000000000081525060200191505060405180910390fd5b6040805190810160405280601481526020017f476f6f6462796520737765657420776f726c6421000000000000000000000000815250905090565b60025481565b60015481565b7f69579b52f99fb899da5798a9bd272f083d9fa4b8c7710dc96edc655335fa3049306000604051808373ffffffffffffffffffffffffffffffffffffffff1673ffffffffffffffffffffffffffffffffffffffff168152602001806020018281038252838181546001816001161561010002031660029004815260200191508054600181600116156101000203166002900480156104c15780601f10610496576101008083540402835291602001916104c1565b820191906000526020600020905b8154815290600101906020018083116104a457829003601f168201915b5050935050505060405180910390a1565b600081511415156104e257600080fd5b80600090805190602001906104f89291906104fc565b5050565b828054600181600116156101000203166002900490600052602060002090601f016020900481019282601f1061053d57805160ff191683800117855561056b565b8280016001018555821561056b579182015b8281111561056a57825182559160200191906001019061054f565b5b509050610578919061057c565b5090565b61059e91905b8082111561059a576000816000905550600101610582565b5090565b905600a165627a7a723058208f37d9cb4d34868c61fe5872f18f58ff38668e27abfe3bf99f70f0aa84329b5b0029",
  "source": "pragma solidity ^0.4.23;\r\n\r\ncontract Subscription {\r\n    \r\n    string public owner;\r\n    uint public subscribers;\r\n    uint public totalFunds;\r\n\r\n    event confirmedCreation(address sender, string name, uint numSubs, uint funds);\r\n    event someEvent(address sender, string someWords);\r\n\r\n    constructor() public {\r\n        //no values, since will be dynamically initialized in factory\r\n    }\r\n    \r\n    function init(string _name) public {\r\n        require(bytes(_name).length == 0); //ensures that the contract has not already been initialized\r\n        owner = _name;\r\n    }\r\n\r\n    function doIt() public {\r\n        emit someEvent(address(this), owner);\r\n    }\r\n\r\n    function subbed() public returns (string) {\r\n        subscribers++;\r\n        require(false, \"Hello world\");\r\n        return \"Goodbye sweet world!\";\r\n    }\r\n\r\n\r\n}",
  "sourcePath": "C:\\Users\\Philz zee Kill\\desktop\\webprojects\\thesis\\contracts\\Subscription.sol",
  "compiler": {
    "name": "solc",
    "version": "0.4.23+commit.124ca40d.Emscripten.clang"
  },
  "schemaVersion": "2.0.0",
  "updatedAt": "2018-05-28T07:51:34.523Z"
}